{
  "_format": "hh-sol-artifact-1",
  "contractName": "BurnVault",
  "sourceName": "contracts/BurnVault.sol",
  "abi": [
    {
      "inputs": [
        {
          "internalType": "address",
          "name": "_token",
          "type": "address"
        }
      ],
      "stateMutability": "nonpayable",
      "type": "constructor"
    },
    {
      "anonymous": false,
      "inputs": [
        {
          "indexed": true,
          "internalType": "address",
          "name": "player",
          "type": "address"
        },
        {
          "indexed": false,
          "internalType": "uint256",
          "name": "amount",
          "type": "uint256"
        }
      ],
      "name": "Burned",
      "type": "event"
    },
    {
      "inputs": [
        {
          "internalType": "uint256",
          "name": "amount",
          "type": "uint256"
        }
      ],
      "name": "burn",
      "outputs": [],
      "stateMutability": "nonpayable",
      "type": "function"
    },
    {
      "inputs": [],
      "name": "owner",
      "outputs": [
        {
          "internalType": "address",
          "name": "",
          "type": "address"
        }
      ],
      "stateMutability": "view",
      "type": "function"
    },
    {
      "inputs": [],
      "name": "token",
      "outputs": [
        {
          "internalType": "contract ITestToken",
          "name": "",
          "type": "address"
        }
      ],
      "stateMutability": "view",
      "type": "function"
    }
  ],
  "bytecode": "0x608060405234801561001057600080fd5b5060405161062a38038061062a8339818101604052810190610032919061011c565b336000806101000a81548173ffffffffffffffffffffffffffffffffffffffff021916908373ffffffffffffffffffffffffffffffffffffffff16021790555080600160006101000a81548173ffffffffffffffffffffffffffffffffffffffff021916908373ffffffffffffffffffffffffffffffffffffffff16021790555050610149565b600080fd5b600073ffffffffffffffffffffffffffffffffffffffff82169050919050565b60006100e9826100be565b9050919050565b6100f9816100de565b811461010457600080fd5b50565b600081519050610116816100f0565b92915050565b600060208284031215610132576101316100b9565b5b600061014084828501610107565b91505092915050565b6104d2806101586000396000f3fe608060405234801561001057600080fd5b50600436106100415760003560e01c806342966c68146100465780638da5cb5b14610062578063fc0c546a14610080575b600080fd5b610060600480360381019061005b9190610256565b61009e565b005b61006a6101d1565b60405161007791906102c4565b60405180910390f35b6100886101f5565b604051610095919061033e565b60405180910390f35b600160009054906101000a900473ffffffffffffffffffffffffffffffffffffffff1673ffffffffffffffffffffffffffffffffffffffff166323b872dd336000846040518463ffffffff1660e01b81526004016100fe93929190610368565b6020604051808303816000875af115801561011d573d6000803e3d6000fd5b505050506040513d601f19601f8201168201806040525081019061014191906103d7565b610180576040517f08c379a000000000000000000000000000000000000000000000000000000000815260040161017790610461565b60405180910390fd5b3373ffffffffffffffffffffffffffffffffffffffff167f696de425f79f4a40bc6d2122ca50507f0efbeabbff86a84871b7196ab8ea8df7826040516101c69190610481565b60405180910390a250565b60008054906101000a900473ffffffffffffffffffffffffffffffffffffffff1681565b600160009054906101000a900473ffffffffffffffffffffffffffffffffffffffff1681565b600080fd5b6000819050919050565b61023381610220565b811461023e57600080fd5b50565b6000813590506102508161022a565b92915050565b60006020828403121561026c5761026b61021b565b5b600061027a84828501610241565b91505092915050565b600073ffffffffffffffffffffffffffffffffffffffff82169050919050565b60006102ae82610283565b9050919050565b6102be816102a3565b82525050565b60006020820190506102d960008301846102b5565b92915050565b6000819050919050565b60006103046102ff6102fa84610283565b6102df565b610283565b9050919050565b6000610316826102e9565b9050919050565b60006103288261030b565b9050919050565b6103388161031d565b82525050565b6000602082019050610353600083018461032f565b92915050565b61036281610220565b82525050565b600060608201905061037d60008301866102b5565b61038a60208301856102b5565b6103976040830184610359565b949350505050565b60008115159050919050565b6103b48161039f565b81146103bf57600080fd5b50565b6000815190506103d1816103ab565b92915050565b6000602082840312156103ed576103ec61021b565b5b60006103fb848285016103c2565b91505092915050565b600082825260208201905092915050565b7f5472616e73666572206661696c65640000000000000000000000000000000000600082015250565b600061044b600f83610404565b915061045682610415565b602082019050919050565b6000602082019050818103600083015261047a8161043e565b9050919050565b60006020820190506104966000830184610359565b9291505056fea26469706673582212203f750edcb8528026c5156ea28cb6f406268b7a78d7bf79ae844fe14bf3d3a87a64736f6c63430008140033",
  "linkReferences": {},
  "deployedLinkReferences": {}
}